:020000041000EA
:1000000000B5324B212058609868022188439860DF
:10001000D860186158612E4B002199600221596106
:100020000121F02299502B49196001219960352056
:1000300000F044F80222904214D00621196600F024
:1000400034F8196E01211966002018661A6600F04E
:100050002CF8196E196E196E052000F02FF8012189
:100060000842F9D1002199601B49196000215960AB
:100070001A491B48016001219960EB211966A021F2
:10008000196600F012F800219960164914480160C1
:100090000121996001BC002800D000471248134993
:1000A000086003C880F30888084703B5996A0420EC
:1000B0000142FBD001200142F8D103BD02B5186610
:1000C0001866FFF7F2FF186E186E02BD00000240BE
:1000D000000000180000070000035F00212200005C
:1000E000F4000018222000A00001001008ED00E03C
:1000F00000000000000000000000000074B24E7A12
:1001000000000420C10100102D56011029DD01104E
:1001100000000000000000000000000000000000DF
:100120000000000000000000000000002D5601103B
:1001300000000000000000002D5601102D56011097
:10014000595B01102D5601102D5601102D5601102E
:100150002D560110FD0100102D5601102D560110D5
:100160002D5601102D5601102D560110915A0110D7
:100170002D560110ED5A01102D5601102D5601106B
:10018000010000202D5601102D5601102D56011092
:100190002D5601102D5601102D5601102D5601100F
:1001A0002D5601102D5601102D5601102D560110FF
:1001B0002D5601102D5601102D5601102D560110EF
:1001C00015F020FE084809490022814201D004C0F0
:1001D000FBE707480749084A814202D008CA08C01D
:1001E000FAE714F09DFC00DE40010020AC40002046
:1001F000000000203C010020281D0210FEB506AFC3
:1002000001262048056CE8041F4C05D5300320600A
:100210001E480C3015F084FE280405D5F00320603C
:100220001A480C3015F07CFE680405D5B003206038
:1002300016480C3015F074FEE80304D53004206035
:10024000134815F06DFEE80600D4FEBD0D480168A8
:100250000191016000260E4D0E480290202EF4D030
:10026000019CF440E00702D0029815F059FEA00767
:1002700002D5284615F054FE029808300290083541
:10028000B61CEBE75800115090301150C83F0020C9
:10029000BC3600203C360020F0B503AF8BB00E46D4
:1002A0000D684C68E36824490F222846029398475A
:1002B000012100283CD10191B07A00060CD42349D9
:1002C00001222846029B9847002821D11D4902227D
:1002D000304614F011FD22E0184902222846029B04
:1002E0009847002814D106A80121017005900494B4
:1002F00003951348089003A80790B068F1680A9125
:10030000099007A80F49022214F0F6FC002801D03A
:1003100001990DE003A80C49022214F03BFE0028CD
:10032000019905D10A4901222846029B98470146B6
:1003300008460BB0F0BDC04630DD01106F0D021055
:10034000740D0210AC1202106C0D02106E0D021032
:10035000710D021080B500AF0169002911D0436909
:10036000491E01618268511C8160C1685918491C8D
:10037000C16003684168184608F01EFA0146012072
:1003800080BD002080BDD4D4FEB506AF04462B4806
:100390000068C00543D12068002845D102910021A2
:1003A000C843224601C201925C20205C25465C3590
:1003B000012804D120460C3015F08EFD2978606D9F
:1003C000A26D0223904202D1C9071E4619D00093A4
:1003D0002146143100222A70431C102B00D01A46EB
:1003E000626580000A5C08184178090289188278E1
:1003F0001204C078000680184618F0B20228009B4C
:1004000006D1029806C801981D4615F070FD2846D1
:100410002168491C2160FF218E433018FEBD084829
:1004200015F097F915F0BCF9064815F087F913F0A7
:10043000D9FE15F073FA15F0B3F9C04604ED00E0EB
:10044000B2000000A3000000B0B502AF0446C068CF
:10045000002809D025460C35284614F023FA002838
:1004600000D0B0BD002028602068012804D1606859
:1004700000216160A168B0BD0020B0BDD0B502AF61
:10048000814205D3994203D81218091A1046D0BDEB
:10049000BC681A46234614F059FFD4D4F8B504AF0B
:1004A00004462020205C002804D0032867D1E56999
:1004B000286811E00DCC0C3C25460C350DC5828812
:1004C000934202D9002001264DE082792546183555
:1004D0007F201040A061E5610F284CD8C0002B4A56
:1004E00010180B684A68194615F037FD286810285F
:1004F0003CD2C00028494018802541592748401C5B
:10050000014202D0032630462DE0009123460C33F1
:100510000DCB4188008800F011F9A069102825D280
:1005200061691E4A114001262B467503009A9543C6
:100530006918F2038918C000174A10180093C150B7
:100540000C201CF0B3FAA06910280FD2C000124989
:1005500008186169114A11400D432121890229437C
:10056000009A8150022020342670F8BD08481D21D1
:10057000084A14F02BFF1021034A14F02DFF014804
:1005800015F02AF80CEF01101CEF01103C3600208A
:10059000A40A0210000B021000001050FF0300001C
:1005A000DCB504AF14460A460146009300202346FA
:1005B000FFF764FFDCBDD4D4F0B503AF85B00C46C3
:1005C00006462020085C002804D0032873D1E56982
:1005D00028680BE00BCC0C3C25460C350BC581790B
:1005E00025461835E5617F200840A0610F285ED8B8
:1005F000C0003449081806CA15F0AFFC2868102856
:1006000050D2C0003249401884214558314A501C0C
:10061000054203D00220307003233FE028461040FB
:1006200062690123049282421A4633D303910193F3
:100630000296E6682169284B0090049AFFF7B0FF04
:1006400002460B467188308800F05CF8A0691028DB
:1006500028D201214E03AE43E16889881D4A11402A
:100660007118C0001A4A1018039D41510C201CF04B
:100670001DFAA069102815D2C00015490818E168B4
:100680008988144A11400E439119491C4151002296
:1006900000AE49CE7060002171703270203423703A
:1006A00005B0F0BD08481D21084A14F08FFE102146
:1006B000034A14F091FE014814F08EFF2CEF011054
:1006C0004CEF0110BC360020A40A0210100B0210DF
:1006D00000001050FF0300003CEF011080B500AF98
:1006E000C0B20C2804D2052109078001401880BD42
:1006F00002481D21024A14F069FEC046740A021025
:10070000940A0210DCB504AF89B28B420AD80849BA
:10071000009180B20749441810461946224616F047
:1007200007F8DCBD044815F014F815F039F8C04698
:100730005CEF011000001050A0000000E0B502AF17
:1007400089B28B4208D80749009180B20649401807
:10075000194615F0EDFF8CBD044814F0FAFF15F0B2
:100760001FF8C0466CEF0110000010509F00000001
:10077000FEB506AF02900126F0040025BC68844255
:1007800008D8009301912346A00001214C05201AAE
:10079000824203D92946304603B0F0BD9007FAD112
:1007A0001149019C0868800701D44869FAE70120D3
:1007B00000071018C8600B610298C00710D01D46D2
:1007C0002046FFF78BFF0A49016000994160856070
:1007D0002107490C074A8918C16000262146DAE73B
:1007E000024814F0E9FDC04608000014ECEF0110C7
:1007F000000040502980120080B500AF01464068DB
:10080000002806D0401E48608868421C8A6009683B
:1008100080BD002180BD80B500AF06C80838914278
:1008200007D06922D2008A1802608268531C836054
:1008300000E00021104680BD80B500AF06C8083832
:10084000914206D00A46A83202608268531C836037
:1008500000E00021104680BD80B500AF06C8083812
:10086000914206D00A460C3202608268531C8360B3
:1008700000E00021104680BD80B500AF06C80838F2
:10088000914206D00A46183202608268531C836087
:1008900000E00021104680BD80B500AF824203D346
:1008A0000B18111A184680BD114614F04FFDD4D410
:1008B000F0B503AF85B0144601910090186802931B
:1008C00059680391019D0399884218D006460C3659
:1008D00002990E6016F0B0FC049029688A1C0098FA
:1008E000094B12F0EAF9049A13F08CFC2868801C7A
:1008F0002860641E601C3046E5D3002000E0012023
:10090000214605B0F0BDC04630FC0110FEB506AF73
:100910000D46009014680192506802902646029895
:1009200084420BD03446A8342E606C600198046079
:100930000098294600F040F80028EFD00298301ABD
:10094000411E8841FEBDF8B504AF18CA0094083AAC
:10095000009CA34210D00E290D4600D30E254E1B3D
:100960000C246C431C19A8330E29136004604360E7
:100970003146EDD80120F8BD0020F8BDFEB506AF28
:100980000D4606461C6801935868029002988442FE
:100990000ED02C60A8346C600198046003CE2B4606
:1009A000083EFFF785FF0A46C007EFD1002000E0B0
:1009B0000120114603B0F0BDF0B503AFFFB09CB00D
:1009C0004122930059AAD3180593436909930369F7
:1009D0000893C368049383691093521C039255AA29
:1009E000D21C02928268079202680B680A914968D9
:1009F0000B91019040682030069000921E460B98A3
:100A0000834200D181E031460C310A980D9101609A
:100A10001068401E1060079D29688A1C0698494B83
:100A200012F03CF913F01EFC014611AC204616F002
:100A300011FD0C9630460ECC0EC02868801C286034
:100A40000898056809980668754366D0002E67D037
:100A5000049C2088109908180E903B4814F06EFEF4
:100A6000208816F045FE0E9C204629461CF031F8E1
:100A70000F904543641B204631461CF02AF805467A
:100A8000324988476E43A01B0E90304CA0470F9808
:100A9000A04714F043FF11A90C2202981CF070FF2C
:100AA00059AC012020700598294E066055A90F22E7
:100AB00003981CF065FF0F98A0740E98607425745D
:100AC00024480068C0052ED13068002830D10023AA
:100AD000D8433060311D14AC59AA204600F0D8FD2F
:100AE0003068401C30602078132802D01C4814F075
:100AF00030FE1099491C019810918161009A10688C
:100B000000280D9B0C9E00D078E70B98301A411EF0
:100B10008841FE1F053EB546F0BD134814F048FD60
:100B2000104814F045FD0C4814F013FE14F038FE84
:100B30000A4814F003FE13F055FB14F0EFFE14F016
:100B40002FFEC04640FC0110680000002557011030
:100B5000703A002004ED00E0B2000000A3000000A5
:100B6000C4000000C0FA0110B0FA0110F0B503AFE4
:100B700085B00446407A0394784400794000874465
:100B800002B1BA432900606820600146FE31227A32
:100B90007A44127952009744026D56675000022041
:100BA00008712068FE21002545542068FF21455426
:100BB00004312068455424689C2001902058C600C8
:100BC0005C34002E67D003CC0969083C8847083E96
:100BD0000834F6E7207CC00700D086E020680121B9
:100BE0002174812149000022425424689C2020580D
:100BF000C5005C34002D70D003CCCA680021083CCD
:100C00009047083D0834F5E7207CC00770D1206884
:100C100001252574812149000222425424689C2028
:100C20002058C6005C34002E57D003CCCA68294631
:100C3000083C9047083E0834F5E700210246A03200
:100C4000E2602161CBE70020087024689C202058D6
:100C5000C5005C34002D40D003CCCA690021083C9B
:100C60009047083D0834F5E700210246A032E260D3
:100C70002161CDE701250D7024689C202058C60015
:100C80005C34002E29D003CCCA692946083C904721
:100C9000083E0834F5E703980168886D4831400044
:100CA000081802900298814217D000200491087021
:100CB0000398046801982058C6005C34002E08D0C0
:100CC00003CC4B6A00222946083C9847083E08346A
:100CD000F4E76D1C0499891CE4E70120039948722C
:100CE00005B0F0BD064814F077FC034814F074FC1E
:100CF000024814F071FCFEDE400B0210300B0210B3
:100D00003CF0011080B500AF002080BD80B500AF81
:100D1000002080BD80B500AF80BDD4D4FEB506AF45
:100D2000044606463436407C0D46C0467844007979
:100D3000400087440225303D5400E168A1606068AE
:100D40000A2820D223688988092808D10022227421
:100D5000002911D12C4837212C4A13F01BFF029394
:100D6000002915D0019000911CF0A6FF4A424A418B
:100D7000019822740099029B6361A061E1610BE01C
:100D80001E4814F029FC1E4814F0E3FC14F008FD82
:100D90001C4814F017FCFEDE2046143013F082FDD0
:100DA000002812D000223273A26822626062A1621F
:100DB000204620302946FFF771FBC0B20228EBD055
:100DC000032817D10321084615E0207C012810D103
:100DD000002001213070A2686261A161E0612046BB
:100DE00014302946FFF75AFBC0B2032802D1042170
:100DF00001E0022001216174FEBDC0466CF20110C9
:100E0000A90000004CF20110380902105CF2011038
:100E1000F0B503AF9DB015460E4604468720085C2A
:100E2000196807911193596810913246E8320128E8
:100E3000149219D1106818AA002151711171D17042
:100E400003239370517010700B210623304615F068
:100E5000BBF97169B069401F884200D35AE131691A
:100E60000A5C521C0A54149A06951368082B00D386
:100E700029E158003018D821002545521168491C35
:100E80001160994200D828E1D921425C521C425499
:100E90003068012800D024E10594716970688842A7
:100EA00000D323E15B21890071181291B968089180
:100EB00031690A5C521C0A540124B069001DB460F7
:100EC000F06018AA95715571157103200E90D070BD
:100ED00095705570049313700421072313933046C3
:100EE0000C9115F071F91098010A18AA03919171EB
:100EF000507122201071D47095700B945470102092
:100F0000107021213046139B15F05EF90996324688
:100F1000EF323F20C44320463F3011998B7C0D9324
:100F2000098A13912346002B00D1EEE0401CD11812
:100F300040254E5D1B1D1499C91840310028F2D080
:100F4000F607F0D1139E412E00D3D2E032463F3255
:100F5000C0231340129A16880F931496F3189EB26A
:100F60000A960B9E36030B960A9AB24200D9C9E044
:100F7000129A1380139E0E80FF2204320A924A8036
:100F8000431E0F2B00D394E0324615A90E9E0E721D
:100F90000D9ECE718A800F9A4A80149A0A8080260C
:100FA00030438871D800694A80180B239A06029250
:100FB000149B9A188260091D099E304615F058F955
:100FC000089800283FD02520C00031183F34002D5C
:100FD00000D1A5E0641C2D1F081DCA79002C014614
:100FE000F5D0D1070146F2D1129D29880F9A1491AC
:100FF0008A1893B20B998B4200D98EE02A80139AFB
:1010000002800A994180601E0F2857D2134618AA01
:101010000E9911720D9DD571947193800F9B538021
:1010200014991180029B0B43C00048490818C36003
:10103000111D304615F01CF919981390189814904A
:101040000E980C90FFE73246503207CA33464833B9
:1010500015F0B4F9069903984877109D0D773D482F
:1010600088613D48C8820920487504980875304653
:101070000E462036119A9368D268079C70C10B60A7
:101080004A60364A0C3900F097F8139A100C05990B
:101090000882CA81149A100C88814A810C9888743D
:1010A00015A80C460CC80CC44E61008820801DB0E9
:1010B000F0BD24481D21244A14F088F921481D213F
:1010C000234A14F083F91B4814F038FB082014F06D
:1010D00029FB14F023FC14F063FB174A184614F0A4
:1010E0007BF9164814F035FB14F05AFB144A14F03F
:1010F00073F91F4814F022FB304616F0F9FA14F089
:101100000DFC02E0164814F024FB1A4800901A481F
:10111000182109E0064A14F05FF9114814F019FB90
:1011200010480090104819211CAA104B14F026FA00
:10113000E0F20110AE000000F0F20110B00000007B
:10114000E8100210C10A0210E00A0210000010505C
:10115000F00A02100100012221100000ACF201107F
:101160007000000044F3011028F30110540902102C
:101170007100000018F3011000F3011080B500AFFA
:1011800080BD80B500AF0021016080BD80B500AF9B
:10119000002080BD80B500AF002080BD80B500AFCD
:1011A000022080BD80B500AF80BD80B500AF80BD9E
:1011B00080B500AF80BDD4D4D0B502AFD423C3581E
:1011C000082B0AD2DB00C318D4309424195194336D
:1011D0005A600168491C0160D0BD054814F0AEFAA0
:1011E000082014F09FFA14F099FB14F0D9FAC046C5
:1011F000AD000000B0B502AF0D460446803000F0EF
:101200009FFBC00706D18022204629461CF0B8FB70
:101210002046B0BD02487921024A13F0BBFCC0460B
:1012200054F3011090F30110D0B502AF044600F062
:1012300087FBC00701D1601CD0BD02487921024A5A
:1012400013F0A8FC54F3011090F30110B0B502AFF5
:101250000D460446103000F073FBC00706D1102283
:10126000204629461CF08CFB2046B0BD024879215F
:10127000024A13F08FFCC04654F3011090F30110A2
:10128000B0B502AF0D460446243000F059FBC0074C
:1012900006D12422204629461CF072FB2046B0BD10
:1012A00002487921024A13F075FCC04654F301103C
:1012B00090F30110F0B503AFCBB00446007BC0073C
:1012C00056D16568A1680020A9424DD3012253057B
:1012D000994249D8084628430005104644D10D20BC
:1012E00000070068002801D002203DE0481B029062
:1012F00014F066FCC0B2039000200C280BD005212E
:10130000090782015118401C0A68520FF5D1CA68BA
:10131000D201F2D5F8E7184801680029FCD101266E
:1013200031020191009605A804901CF08AFA14205D
:10133000008818210A88114990470346310704980C
:10134000019A984745A80190002600993246049BCF
:1013500014F0E0FC284602993246019B1CF0DEFCAA
:10136000039814F091FC0420012121734BB0F0BDCF
:10137000034814F031F9C04618000014433400004B
:10138000A0F30110F0B503AFD1B00546007CC00753
:1013900000D063E1AA680126710500208A4200D9C5
:1013A00020E1EB68891A8B4200D91BE11946FF3115
:1013B000FF20069081430E91C91A8A42144600D339
:1013C0000C460D916968089131020D2000071094B8
:1013D000002C09960B900F910792059334D011AE13
:1013E000FF2230460C460C921CF07AFA0D98211A16
:1013F000109C0A199B4B30460E4611F069FC9A4A24
:101400000092089A234615F093F90B98006800287B
:1014100000D0E5E004950598801B0D90099804061E
:1014200045070520060714F0CBFBC0B20A90002048
:101430000C2810D081017118401C0A68AA42F7D20A
:10144000CA682242F4D0F8E789491140FF2A1046C1
:101450000E9318D89DE0854801680029FCD111A998
:101460000D980F9A14F096FC0A9814F00DFC079A48
:10147000109BD01A01460C9CA1431943FF28049DE0
:10148000099E00D885E0029004957507681E089CA7
:10149000844209D991420B9800D9D6E0006800280F
:1014A0004ED00220049D9DE091420F9B00D9D0E0D8
:1014B000109822180391081A6E4901400D913606C2
:1014C000052004070699C8430A900D9800285DD0AE
:1014D00011A8114610921A461CF052FA0B98006897
:1014E00000282AD10D980A9940180D900F9810994C
:1014F0000918109114F064FBC0B20C9000205B4BF3
:101500000C2809D081016118401C0A68AA42F7D250
:10151000CA683242F4D0F8E718680028FCD111A953
:101520000E980F9A14F036FC0C9814F0ADFB0F9B3C
:101530000E98C0180E90109AC7E70220049D50E044
:10154000109822180D920391081A10903406052065
:10155000060714F035FBC0B20C9000200C2809D00F
:1015600081017118401C0A68AA42F7D2CA68224257
:10157000F4D0F8E73D4801680029FCD10E980D9998
:10158000109A14F007FC0C9814F07EFB099E02AD33
:1015900023CD0391C4B20420002C23D00E9011A8B7
:1015A00010900F9E3146069A1CF09AF9334B204654
:1015B00010993246FEF7F4FF04460E46304B03986E
:1015C0000899079AFFF768F902460B462D480090E4
:1015D0002046314615F0ACF80B980068002804D07E
:1015E0000220099E2E7451B0F0BD0495059807990C
:1015F0000818FF3006998843C9434018109009988D
:10160000040646070520050714F0DAFAC0B20D906B
:1016100000200C2809D081016918401C0A68B242D8
:10162000F7D2CA682242F4D0F8E7104801680029CE
:10163000FCD111A910980F9A14F0ACFB0D9814F07E
:1016400023FB049D099E0E98CCE70F4B109813F0D6
:101650007DFE094B1098079A13F078FE0B4813F0A3
:10166000BBFFC0467CEF01108CEF01101800001486
:1016700000FF3F0000FFFF7F9CEF0110BCEF011057
:10168000CCEF0110DCEF0110ACEF0110B0F3011052
:10169000F8B504AF0D460446212040010E18307AFB
:1016A000002813D01678132E25D0511C002B07D0FC
:1016B0001868009106C80835284614F018FC0099EF
:1016C000601CFF2204321CF05BF918E0412083000B
:1016D000706858432818103011461A461CF0B0FAAA
:1016E0007068401C042800D100207060316881427D
:1016F00001D101203072284614F0EEFB132626702B
:10170000F8BDB0B502AF1946154604467D20C200AB
:10171000002328461CF039F9024620460B4614F0F7
:1017200059FCB0BDF0B503AF87B004910446292041
:10173000C100605C2246303200280592039111D02E
:10174000032846D120461030029010787844007962
:1017500040008744024144211F002546103529CD11
:10176000E2690BE00020107029CC22680C3C214675
:10177000103129C1E2612146103102912146203108
:101780002DC1A90701D001252AE0990706D0002222
:10179000A26330E015794CE015790DE041780078CE
:1017A000AD080095FEF7E4FF0D46059A9171012101
:1017B0000140517164D115712846049913F0A0F8C5
:1017C000002801D0032013E02046343010F0AEFF93
:1017D00054E0374813F000FF344813F0FDFEFEDEFE
:1017E000012005990870029811F028F801204EE0B8
:1017F0000599087049E0954240D92346483323644F
:10180000A81A0121FF2800D90802E0638508656451
:10181000206A666A0691417800780095B218FEF752
:10182000A7FF0D46059A917106990840507127D17E
:1018300015712846049913F063F800282DD120462D
:10184000343010F073FF2246383207CA0692666CB5
:10185000A26AE36A174D00950918FEF70FFEB20061
:10186000E36B93421BD8144A0092069A14F060FF6F
:10187000A06BE16B4218A263E56ABCE70425AFE701
:1018800001201070E8B20528ADD105250320039989
:1018900061180870284607B0F0BD0420A8E70020B2
:1018A000064C1946234613F051FDC046FCEF0110CB
:1018B000C0F301100CF001102CF001101CF001100D
:1018C00080B500AF06C801234B400838134304D14C
:1018D0000021022202604160FEDE024813F039FF5F
:1018E00013F05EFF9B00000080B500AF0178012976
:1018F00007D100214170017802220270012902D132
:1019000080BD034800E0034813F023FF13F048FFB5
:101910009B0000009A00000080B500AF06C80323BA
:101920004B400838134304D1002104220260416077
:1019300080BD024813F00DFF13F032FF9B00000042
:10194000B0B502AF054614F03BF9C0B22C78002CBC
:1019500001D10121297014F097F9601E84412046BD
:10196000B0BDD4D4FEB506AF064900910190002168
:101970000491694603910291283002A900F07AF897
:1019800006B080BD4410021080B500AF024A0023AB
:101990008354024A815080BDA2170000D416000073
:1019A00080B500AF044600252848854244D0284829
:1019B000461914F005F93246B669002E01D03146B9
:1019C00000E003219161C0B214F05EF91F482D18A8
:1019D000002EEAD11E4840191E4945181E4868626B
:1019E000284628302146FFF7CFFF2C6214F0E8F894
:1019F00021682560E961C0B2002900D140BF14F020
:101A000043F914F0DDF8256800212160C0B214F01C
:101A10003BF9002D0ED014F0D3F8A96902229143AE
:101A2000A961EE69C0B214F02FF9696A28468847A7
:101A30003546EEE720BFE4E7084813F07FFE12F0DA
:101A40004DFB13F06BFF13F0ABFEC0469834000063
:101A50004001002068CBFFFF6519001099000000CD
:101A6000E0B502AF00200090C04301906846FFF748
:101A700097FFD4D4F0B503AFCD4EB544CD4A6A44F8
:101A80003D92CD4A6A448092CC4A6A443492CC4A10
:101A90006A44399289910446CA4820186290CA481B
:101AA00020186390C94820186490C9482018659090
:101AB000C84820186690C84820186790C748201862
:101AC0006890C74820187B90C64820187A90C6486E
:101AD00020181990C54820181890C54820181A9049
:101AE000C44820187C90C44820181690C348201879
:101AF0001790C34820184390C24820181B90C24832
:101B000020188790C14820189490C14820189190BF
:101B1000C04820189090C04820188E90BF482018C8
:101B20008C90BF4820182D90BE4820181490BE48B5
:101B300020183190BD4820183A90BD4820186D906B
:101B4000BC4820183590BC4820183F90BB4820184E
:101B50003E90BB4820187D90BA4820182C90BA4877
:101B600020182190B94820182E90FD482018329056
:101B7000FC4820182B90FC4820182090FB48201887
:101B80006B90FB4820183C90FA4820187090FA4857
:101B900020186F90F94820187E90F94820181F905F
:101BA000F84820186A90FB4820186990FA482018D5
:101BB0003690FA4820183B90F94820188290F9484E
:101BC00020187490F84820183790F848201823906F
:101BD000F74820182490F74820183090F64820182D
:101BE0002290F64820182590F54820183390F548A3
:101BF00020182A90F44820188190FB4820188690DD
:101C0000FA4820189290FA4820187690F94820183F
:101C10003890F94820188390F84820186E90B72023
:101C200095904000644D6D44281829900926700154
:101C3000939020184B905123980020184D902D22FE
:101C4000D00020184E906320810061184F911B2115
:101C50006C910901611850917521890061185191A9
:101C60003F21C90061185291872189006118539161
:101C70001396B10161185491992189006118559109
:101C80008493D90061185691AB218D918900611818
:101C900057918892110161185891BD218B00E3186A
:101CA0005A93C300E3185B93CF239B00E318599327
:101CB0009323DB00E3185C9327224A925301E31835
:101CC0005D93A523DB00E3185E9357231B01E31804
:101CD0005F93959AD200A218609203221D9252023D
:101CE000A2186192C9227192D200A6188B22120109
:101CF000A2184292912241925201A21815925F229B
:101D00009201A2187592C5225301E31877936923B3
:101D10007F939B01E3188F93D3235B01E3188B938D
:101D20003523DB01E3187993D5235B01E318729324
:101D300037234C93DB01E3189201A2187892C0017B
:101D400020187390C722900120181C904801201879
:101D5000859080781849694478312F9129465C3103
:101D6000279129467C312691D4352895A11C449190
:101D700021462631459121464831469121466C3114
:101D800047912146903148912146B43149912546E9
:101D9000D8358A94FC341E924000C046784480882E
:101DA0004000874455009B0AE922CE00B800C04697
:101DB0007CCFFFFF68300000601D0000380A000083
:101DC00040090000BC040000040500004C050000B0
:101DD00094050000DC050000240600006C060000ED
:101DE000880A0000980B0000F8110000A8140000F9
:101DF000D414000024150000A4150000D016000023
:101E00005817000038180000F018000010190000E2
:101E100030190000501900007019000090190000DE
:101E2000B0190000EC190000441B0000841C0000E5
:101E3000A41C0000C41C0000881D0000A81D000098
:101E4000C81D0000E81D0000081E0000B01E0000B4
:101E50000E950F941096119300248598048013F02A
:101E6000AFFE674A5179012901D101F03AFAC0B2B7
:101E70000126567113F008FF624963480860634DFC
:101E8000AC64E8689596B043E86068690128FCD1C5
:101E90002868032290432860A8680128FCD10D928D
:101EA0001003086013F004FF59485A4941608160EB
:101EB0008D99090101615849016058480168F02273
:101EC0000A40B02A07D00168B0220A4340218A4361
:101ED00002604199416052485249C16052490160D3
:101EE00041680029FCD5514E889870600A201AF08C
:101EF000DDFD3246959830607D20B0600C20419029
:101F000070604B4E30461168002900D594E0401CAB
:101F1000F9D34848B0E00620819908588B1D5968CC
:101F200000240222121A7C9422468A4101D200F037
:101F30001AFD8893084301D100F0A5FD929B02F0A1
:101F400043FF1193879B187D859C1C3419461431DF
:101F50007A910DA1949D8F9E4000085A40008744BD
:101F6000D01E0000F01E0000101F0000E82200003C
:101F7000A02700001028000032280000A028000040
:101F800014290000D02A00003500C6090B222305C1
:101F90000505C046882B0000B82B0000642C00000B
:101FA000842C0000A42C0000382E0000582E0000C5
:101FB000782E0000282F00004C2F0000702F00000A
:101FC000942F0000B42F00008A30000058688890D9
:101FD00098686690D96818694390987D9590587D67
:101FE0007B9000F0F5FBC046AE300000D030000022
:101FF000F03000001431000060310000A03100001A
:10200000C83F002000C00040BFCDFB003080004032
:102010000000064000009696A5BFFA00004006406A
:102020000040024070170000A0BAFA000080024091
:10203000C0BDF0FF9D00000031200B904003D06038
:102040005068082112918843506064201AF02EFDD8
:10205000F249889848600A200C901AF027FDEF4A50
:102060009598106078209060419850601068002822
:102070000AD4761CFAD3EA4813F060FB13F03EFE54
:1020800013F04CFC13F08CFB65200003D06050680B
:1020900012998843506064201AF008FD02200490D1
:1020A0002860A8680428FCD1939B203B6B60959A1C
:1020B000500206900C30DB490860EC60686901282A
:1020C000FCD1EA6068690228FCD12B61D602AE61BE
:1020D000AB626E6205936B632E6390040390286479
:1020E000EE63D14813F0E4FDE54313F069FDCF49F9
:1020F0008D63CD63C0B213F0C7FDCD48959D0560DB
:10210000CC480560CC4806600B200A9013F0DEFD39
:10211000CA48C01CCA490860C64806606E03C64863
:1021200006600D20099013F0D1FDC24A1660C54823
:102130002021016040911160C3489C2C03D00021F4
:102140000151241DF9E7C1494022959C002A03D082
:10215000002308C1521EF9E70921079141674199FF
:1021600081670464B1480C3013F0DAFE6404002087
:10217000402807D0B64969440C520918220C4A80FD
:10218000001DF5E70020402807D0B24969440C52F1
:102190000918220C4A80001DF5E7AF488A9D2818CF
:1021A000AB496944402632461BF0EAFBAB4828188D
:1021B000A8496944029632461BF0E2FB0D98C00123
:1021C00043990880A3486844A54A129B002B04D079
:1021D000911D01805B1E4430F8E7112012904201EE
:1021E00008929B48684443909A4969441BF028FD33
:1021F00000269C487B998860CE609B487A9D6861E8
:102200002E747F9800018A9908180D904399089AB6
:102210001BF0E5FB95489649AE61964A429B41C347
:1022200019605E609A60DE607B98067092488A99B9
:1022300008189599090208911BF0AFFA8F48904948
:10224000904A914B2B606A60A960E8608F490298C0
:1022500088648F4905220A618E4B039919618B4965
:102260008D6C44217B910D4308214291C9437A91A1
:102270000D4086498D64C86485498A619599CD046D
:102280001D618249CD6C7B990D437A990D407F4940
:10229000CD6408657E4D2A62959D2D0543951D618F
:1022A0000D6D7B990D437A990D4078490D65486510
:1022B00077498A6295994D051D6174494D6D7B99E9
:1022C0000D437A990D4071494D65C86372498A671B
:1022D0009599CD031D616D49CD6B7B990D437A991D
:1022E0000D406A49CD6308606B490A60959D1D6089
:1022F000DD60664D68608A6004991960D960A860E5
:1023000065490A61042119600491D960E860624955
:102310008A6142991960D96028615F490A62102177
:1023200019607A91D96068615B498A624099196045
:10233000D960A86158490A631860D860E8618A6367
:1023400080211960D960286253490A64059919608F
:10235000D960686250498A6406991960D960A86298
:102360004D490A65959DA9021960D960474988655C
:1023700047490A63A9051960D960444D2864444956
:102380000A602E49091D1960D96068647B92404833
:1023900082601C60DC604148FF210231859C218005
:1023A0001299A1763E4921833E493F4A3F4BA060A6
:1023B000E360226161613E488A9C20183D491C22ED
:1023C00003921BF0DDFA3C4820183C491822059284
:1023D0001BF0D6FA7C988671409981804399016000
:1023E000462E07D01B48684480190E211BF032FB93
:1023F0000E36F5E732488A990C1816496944462288
:1024000020461BF0BDFA0020154DA8285AD0691CA3
:102410000F4A6A4411520C30F7E7C04600C0024030
:102420009E0000002C800540FFFFFF01C83F0020F8
:102430003840054000E100E080E100E0FCFF0000E2
:102440000404005080E200E0000011500000105031
:10245000580A0000601D0000D81600001817000080
:102460006F08000040420F001400140050C3000029
:10247000C0D40100FA80FAC0980A000003281404AE
:1024800006033201640050006400140004C00140DF
:1024900084400140180000D004400140121314157C
:1024A000161000000708090A030405060F000102C0
:1024B0000815000008F40110F01400007CF501106C
:1024C0005A170000E94868444394E9496944029175
:1024D000A8260446069032461BF0B2FBA8342046DC
:1024E000029932461BF0ACFB4C20449A5080E14EDE
:1024F00016801E21D18196811F2151831683459814
:102500004099418006802121C18186812221418319
:1025100006832521469A9183568324211182D681F0
:1025200023219180568088994798818346834A99D0
:102530000182C681262181804680A91C8A9B198040
:1025400099811983998419869987118391811180C2
:102550000183818101802B224898828346832A222D
:102560000282C6812E22828046801422499DAA8042
:102570006E801A222A82EE81429AAA836E831522E5
:102580000E9CA280668017232382E681039BA3838F
:1025900066830183818101802983A9812980218328
:1025A000A181218012230F9CA383668341982082FE
:1025B000E6810598A08066802183A18121804B9CC3
:1025C0002183A181218066833023A383E6812F2389
:1025D000238266801323A3804D9C0498A083668386
:1025E00039232382E6810B98A08066802183A18114
:1025F00021804E9C0798A083668307232382E6816F
:102600001623A38066802183A18121804F9B099896
:1026100098835E830A981882DE810C9898805E8089
:102620001983998119803323509CA38366830F23D8
:102630002382E6810E23A38066802183A1812180ED
:102640002823519C2382E6813423A3806680E04DB9
:102650002583A18121806C9B529CA38366831D23CB
:102660002382E681E123A38066802183A1812180EA
:10267000539C7B98A083668319232382E6810623DB
:10268000A38066802183A18121803623549CA3836B
:1026900066837A982082E6811298A08066802183E2
:1026A000A1812180E523559CA3836683382323825F
:1026B000E6814C9BA38066802183A1812180E02359
:1026C000569CA38366832183A58125802C23579C58
:1026D000A3836683E2232382E681E323A3806680CB
:1026E0002183A18121805223589CA3836683502398
:1026F0002382E6819598A080ED4B63802183A181A0
:1027000021804F235A9C2382E681849BA38066808C
:102710002583A18121805B98058385810580599857
:1027200005807F98C0008A9C2018120106991BF032
:1027300087FA681C5C9908838881088062990883FD
:10274000888108805D99088388810880639908835F
:10275000888108805E9908838D8108806499088348
:10276000888108805F99088388810880659908833B
:102770008881088060990D83888108806699088324
:1027800088810D8061990883888108806799088312
:102790008881088010990D838D8108806898058351
:1027A00085810580879B959E9E7508989882224614
:1027B0005C607C9D9D600D99D96043981861859CF3
:1027C0001C34184614307A9066957B9688928F9EBA
:1027D000759A116043985060679488982060959D21
:1027E00035767B9AF2750022B275B24A7060B2609B
:1027F0006698F06031611C4618346594344616348E
:1028000068942C46054674757B9830758898986155
:10281000DA619498056041602E79012E01D800F0AC
:102820005AFD28689590A44812F088FF01208890EE
:10283000C002A24CA047B000A047287913F0DEFDEB
:102840002868A04713F06AF8959C002C14D09C4887
:10285000C01C0442949D8F9E01D000F045FD286865
:102860000079000300198A990FE0C046601D00003E
:10287000580A00006208000088984005949D296865
:1028800009790903441A8A998F9EAC60E860B08A7E
:102890003080719840010818092149011AF07DFF24
:1028A0008A9B224600207D99087228460830F061F4
:1028B00008310C461C3695968B9E416832607160DB
:1028C00001460831799A1161939951610021729DF5
:1028D000697478497B4A9A182523DB00C018686020
:1028E000AA60E960254689980268774C6C442046C6
:1028F000314603F075FF24780C2C03D10320287097
:1029000000F042FD3046714E6E44366810F037F9E3
:102910000120287095980FF0D7FF062C949D06D1C2
:10292000F00704D028684179012900D0E4E0684824
:1029300012F00FFFA868E9688F9E959A1660002232
:102940008B9B1A7603C3679C35461C355E486844EA
:10295000294605F009FF5C48684400680C2845D109
:10296000042000F011FD012602F0FBFE184618308D
:102970008B909198C11C8F91C078400078448088DA
:10298000400087440900C704F91CED02C602270372
:1029900015033903DA02EF106969A869EA69DB698E
:1029A00088938B9C00F0A5FE183365933046163053
:1029B0006890B07D4000C0467844808840008744DD
:1029C0000A00A604DB1CB80109009C01AE03C90182
:1029D0006F080000B8E7679470688890B268F5687F
:1029E0003169347EF07D7B90879B0CE767940020F3
:1029F0003F9E307094980446083495952C6040684A
:102A0000879A9169D2698B9B06C31860083BDC608A
:102A100019615A619861012079990871D748086055
:102A20000620187725686168889114F0A5FF70600A
:102A3000B5608898F060204608303E998860939889
:102A4000C86000207D9D68748B981C30311DCC4A75
:102A50008A9B9A182523DB00E3182B606A60A96023
:102A6000E86089980268344608341748684421466B
:102A700003F0E8FF1448684400680C2800D091E097
:102A8000032001F0DBFB86980478929B81980E303E
:102A90007F9001207C9064007C44A4886400A7445B
:102AA0007F116B1C6B1C190075118001BA03C046A5
:102AB00065080000A40002105B000000255701100B
:102AC000FC0F0000D11D000048050000500500006B
:102AD00019000000869CA01C879018460C307D9041
:102AE000187B002800D1ADE203288A9901D102F0B9
:102AF00077F8A44812F070FD8079012801D000F029
:102B00004DFDA14812F025FE8799C8690068959E81
:102B100030602C46083400203A9B18716868896937
:102B20008B9A146051609660D0601B1D889314616D
:102B300051619661D0610025799E357275600720DC
:102B400030702168959161687B9114F015FF3A9A75
:102B500090609598D0607B981061204608306D9900
:102B6000C86093980861359B5D75104608308749A9
:102B70008A9A51182522D200A2185A609960D8600A
:102B80001E61899802683A9C0C3481486844214649
:102B900003F058FF7E48684400680C2849D17A9AAF
:102BA0001D98C9E3F64D6D442D68F44E6E443668A9
:102BB00020460FF0F9FF0B2E00D086E2002088900F
:102BC000119D28726860072028708B99CC68216855
:102BD0007B916168669114F0CFFE3F9E70607B9898
:102BE000B0606698F060204608303E9988609398FF
:102BF000C8607D9B88985874301D61498A9A511825
:102C00002522D200A2181A6059609860DD60899868
:102C1000026834460834DE486844214603F012FF57
:102C2000DB48684400680C2800D0FBE0042001F079
:102C300005FBD74D6D442D6820460FF0B5FF0B2DD9
:102C400000D023E2112040018B99C9690A189368CA
:102C500095930858799001208302C8586490D24C0B
:102C60000D5B0C1960881669119CA660D668729677
:102C700052687192C9184968A082658208207B90C9
:102C800020717D22D5000026669664982A46334638
:102C90001BF024F82082799871992A4633461BF05C
:102CA0001DF8E081959872992A4633461BF016F874
:102CB000A0818B9805692E68686895907B9814F0C0
:102CC0005BFE3A9A9060D66095981061284608306D
:102CD0006D99C86093980861359E66987075201D3F
:102CE00011460831A44A8A9B9A182523DB00EB1869
:102CF0007360B260F16030618FE167943F98007853
:102D00001C36959603A18B9B3F9E4000085A4000BD
:102D10008744C0460A000903321B09000800ED0081
:102D20006A0AA00A73E79CE606CB1868959C24689B
:102D30006CE667941C367D9805460835007A0028B5
:102D4000959600D179E103288B9E00D1CBE5974879
:102D500012F042FC67943A98011D889100798A9E8E
:102D60004000C04678448088400087441400D9025F
:102D7000051B130056013F09B609C0462CD1E68C4D
:102D8000891D0000ECEE011048000000891C0000C5
:102D900048050000F5E68B9A146851689668D0687B
:102DA000C5E6022086990D589398DF30FA490968E4
:102DB000014200D09EE22868002800D09DE24D200C
:102DC00080002E180021C8432C4601C4307A012807
:102DD00004D128460C3013F07FF8317A05CE083E36
:102DE00090427C9A00D10A46D10710D0294614316E
:102DF000431C00229593102B134600D0959B336003
:102E0000327212224243885C082800D0F3E189988C
:102E1000006806C8204613F06AF82868401C28603D
:102E2000052055E25F4D6D442D68594E6E4436685D
:102E300020460FF0B9FE0B2E00D046E111204001D4
:102E40008B9989690A1893688893085866900120BD
:102E50008302C8586190544C0D5B0C196088166948
:102E60003A9C6660D668649652686392C91849684D
:102E70002082E58108207B9020707D22D6000025ED
:102E80006295619832462B461AF028FFA081669819
:102E9000639932462B461AF021FF60818898649925
:102EA00032462B461AF01AFF20818B98C5682E688F
:102EB000686888907B9814F05FFD3F9948608E6049
:102EC0000E468898C860284608303E9988609398D6
:102ED000C8607D9B62985874301DB5498A9A511814
:102EE0002522D200AA181A6059609860DC6089987F
:102EF00002683446083426486844214603F0A2FD9F
:102F00002348684400680C2800D0C8E0052001F080
:102F100095F9919A101D88906D9801460C317F911A
:102F2000007B002801D100F01DFD03288A9D01D1FE
:102F300000F034FD9F4812F04FFB35990879919AC3
:102F4000134608337F93091D8891002800D17DE046
:102F500003288A9901D101F0A5FD974812F03CFBA6
:102F6000919B08339098007806A18E9D7293400043
:102F7000085A40008744C046891C000048050000EC
:102F80004C0500000E00D101001A0001E900C04606
:102F900048050000919B9E68D9681A69909800F0D6
:102FA00003FCC0464C0500001C050000D4010210C3
:102FB00035990879919C22460832091D002888928B
:102FC0007F9147D003288A9901D101F02FFC7B48DB
:102FD00012F002FB919A101D95906D99087D1431A5
:102FE0006D9100288E9D39D003288A9A01D100F076
:102FF00094FD734812F0F0FA919A101D889035985C
:103000000078002801D101F07EFC03288A9901D1C3
:1030100001F0B2FC6B4812F0DFFA899802683A9C22
:103020000C3469486844214603F00CFD6648684446
:1030300000680C2817D1042088E12C46306802680B
:103040008A9B39E41A20205801F0A6FD9168D068C7
:1030500001F0EFFCA168E06800F0E5FD9168D06840
:10306000939B00F042FD584D6D442D6820460FF0B3
:103070009BFD0B2D0AD100208B9E71697F9C220144
:103080008A183A9DA960EA60286161E18B9E01205F
:10309000889908700C2D00D07DE2072074E14B4D1B
:1030A0006D442D68484E6E44366820460FF07CFD16
:1030B0000B2E0AD100208B9D29697F9C22018A1842
:1030C0003F9E7160B260F06060E13F486844066016
:1030D0003E48684405603C4868440AF057FC8F9EAF
:1030E00001203F990870959C20460FF0ABFC949905
:1030F0008868C9682060719840018A9A10188B9A74
:10310000D0611160324879994E618C61C8619398A1
:1031100008600020729948712E480860679C679487
:103120002D488A990C1889980268274868442146D6
:1031300003F088FC2448684400680C2801D106206C
:1031400022E120460FF030FD28E29098011D799190
:1031500001461C317B91007F4000C0467844808846
:10316000400087440400E30009194B01C00A909B0A
:103170005A689868D96835E19098001D75908C98C8
:10318000014615319591407D119A04A18C9C400017
:10319000085A40008744C04604ED00E02200CD00FC
:1031A000F01841036105A605C90509065406AA06DB
:1031B000891D0000F401021090000210700002103E
:1031C000BC00021060000210480500004C05000021
:1031D000A4000210240202105C1A000021468E98FE
:1031E000426880687B90E4680B699098466888968E
:1031F00085687D95F8E28698801C2968491C2960BD
:10320000F5490160F5488A9A1018F54951183CC8EB
:103210003CC10088088086998B7908228A71082B26
:1032200072D002200D589399DF31FC4800680842A3
:103230008A995FD19593286800285ED1FA480B18C7
:103240004D2080002E180024E043294601C1307A29
:10325000002894930FD08998006806C828460C303F
:103260001C4612F044FEFA486844112221461AF026
:1032700087FB95991BE091919392706812214143CD
:103280006818959901751530112219461AF078FBC6
:103290007068401C102800D0044674603068A0425A
:1032A000919801D10121317212F016FE939928688C
:1032B000401C2860082902D1929B01F071FD86987C
:1032C0008171E3496944112294981AF059FB062050
:1032D000929B01F077FDDF4802F09BFEDE4812F082
:1032E0007BF9DE4802F095FEDD4802F092FEDD48F3
:1032F00012F072F9DC4802F08CFEDC4812F01EFA83
:1033000010F070FFFEF7BCFED94802F082FED948EB
:1033100012F062F9D84812F05FF9D84812F05CF95F
:10332000D74812F059F9D74812F056F9D64812F09A
:1033300053F9D64812F050F9889908700720689917
:10334000087003201070032002F09AFF7A9AF3E7C6
:1033500028460830FDF75FFA00296D9B09D000224E
:103360001A60E2008A182B46143307C38A9900F0CA
:1033700064FEB0690068002800D109E10021022242
:10338000A860EA602961F3E07A9AD8E7301DFDF77A
:1033900042FA002908D00022E300CB1830617161A5
:1033A000B361F2618A990EE068690068002807D06D
:1033B000002102227060B260F160959C00F0B3FEC3
:1033C000959C00F0BEFEB2480818FDF735FA0029BA
:1033D000DCD000220B46A8333E9C0BC422608A99A5
:1033E00000F01FFF1A6158619961136818320CC50B
:1033F0002860696000208C990870083D89980268EF
:10340000A4486844294605F079F8A24E6E4436680F
:10341000022E00D182E09F49694428464A8A7D9263
:103420000D8A9D496944096888919C4969440968E5
:1034300095919B4C6C4424680FF00AFA012E70D0D1
:10344000002C01D101F077F9964868447D99C1813B
:10345000858139990C60959A4A60889A8A6019F03A
:10346000DFFA042962D390988269AA427BD341692A
:1034700004208D4B2A46FDF70FFA02460B46854C79
:103480006C44204611461A4615F02CFE26780A2E6A
:103490004FD080486844817C7D91417C9591007C2F
:1034A00075907E4C6C4424687D4868440068889020
:1034B000794D6D442D6801207B99087079980FF043
:1034C00093FB012E04D00B2E9399919A3ED0EDE1FF
:1034D000759E7D987B952346959C0D2C9399919A8A
:1034E0008E9D00D9E3E1042E00D9E0E1012800D946
:1034F000DDE10246A82070437F99C9005143919AAB
:1035000092695118919A08180C216143889C445083
:103510004018939943607B9B8360C8E1032001F0CE
:1035200024F988947B997998959C0BE004240020D9
:1035300005E05A4C6C4424685948684400688890F7
:103540007B99799801220A700FF04EFB88985149B7
:10355000694408605248684404604E4868440AF070
:1035600015FA0124E8E10020504B294611F0EEFE47
:103570004F488A990818FDF73FF900296D9A07D03E
:103580006861A961E961002010608A9900F0BFFDBF
:1035900001208899087030460FF0ACF945488A9EA2
:1035A00031182520C4002A48684422461AF048FBF6
:1035B00001208F9DA875404831188A783F4B6B4495
:1035C0009A70305C49780902081818802D78022D0D
:1035D00008D103207A9AB5E6303900209C300000EB
:1035E000B430000075980830194969448890224623
:1035F0001AF026FB87980570314830182F49694426
:1036000003221AF0BDF9A7204000659A105CC01E85
:1036100004285CD802A1085C4000874404ED00E067
:103620000758130D5300C046B530000055208000E8
:1036300010180FF049F94AE05520800010180FF0DB
:10364000B3FA44E05520800010180FF0FBF93EE07B
:10365000601D0000CC00000094F50110A1000000E6
:10366000CD0000005CFA0110B2000000A3000000D1
:10367000A2000000140202100C01021080000210CF
:10368000E401021004020210A8F70110A4F60110D0
:103690009C1D000048050000540500005005000076
:1036A0004C05000040090000C8F70110B8F70110F0
:1036B0008C1C000018190000411A0000380A000094
:1036C000F11800002B20C00010180FF013F96798B4
:1036D00001680023879CA3618898E061759A05CAF8
:1036E000949D6961A861EA61919EF3701834F31C9E
:1036F0008F938B9423680AC528606A6029214A0148
:1037000081188258083D072A11D82C2353431818D2
:10371000BD4BC018BD4B072A0BD8002444628462FD
:10372000038383810380521C0A602C30F3E7082056
:103730000860A868002239990A607D924A608D214C
:10374000890042184558072D19D8959238216943A8
:1037500008180121490244183834072D11D8AC4EFD
:103760006E44AC496944304610F0BAFD3822204618
:1037700031461AF005F96D1C95980560ECE70820B4
:103780001060889E002E60D094990A1D919B7D9CAC
:103790001C710E619098047009689E60D9601A616E
:1037A0001C46083472948E9D5E619961DA6106CE82
:1037B000889141607D928260083E324608326A609C
:1037C0002946939D8D6000238C994B75924B8A9C62
:1037D000E3182524E4003419CC600B610E4615363D
:1037E0009596061D75967B95799300260E758E9D90
:1037F000EC602B61889DC5607D9B036142617B9A73
:1038000082618D61CB613198C6600120119A9072FE
:1038100056721460799850600C461192899802682B
:1038200018347B486844214602F0DEFE784D6D4432
:103830002D68022D0CD103209599087003207A9AE7
:1038400090990870032001F0A0F9949D00F079FD93
:103850007248684400688890714E6E44366820460D
:103860000FF069F8012D31D101208E9948617D96C4
:103870008E61889ECE618C99959B00250D750124E3
:103880001C7075980FF0C0F8002D4AD03198056073
:103890007D99416086607B99C16079990161416140
:1038A000889981619599C1619399919A8E9D002023
:1038B000909B187750690830319A5A609860D960A7
:1038C0001C461C347B941C1D79948BE500208E9D36
:1038D0006861AE61889AEA61F10700D1ADE1909C20
:1038E000E068216904F076FF8C99959B28600B2293
:1038F000E261266A7D920B2ABFD100220A7531034C
:10390000909AD06812697B924118464A8A1895921B
:10391000091D88912946ED6809697D9179960646C9
:10392000ADE77D983A49694408603D4868440660BF
:10393000374868440AF02AF8949D0120909908704D
:1039400072980FF00DF900206D9B1873A868919A7A
:103950009060107929695160204390700C337F93F7
:10396000101D889051689068D06008689590164640
:103970004A6872612C4A2D4B8A9DEB182524E4007D
:103980000C198E9844618361C2610831016093997A
:10399000416000218C9841709598306165208001CC
:1039A0002C18899802681A4D6D442846214602F069
:1039B00017FF2E780C2E05D103207F990870042064
:1039C00001F0E2F812486844018A7D91C1897B9137
:1039D000808979901148684400687F90104D6D444B
:1039E0002D6820460FF0CBF80B2E959620D1084875
:1039F000684405607F980A4969440860044868443F
:103A000009F0C4FF4FE0C046240500006F08000025
:103A10004805000040090000511900005005000051
:103A20004C050000FC0F0000AC000210B11C0000AF
:103A30007F997595082E36D17D20C20072920D4671
:103A400088B200242146234619F09FFF919EF26818
:103A50004523DB00D050D018416023200001F168DD
:103A6000759A0A50280C2146729D2A46234619F061
:103A70008CFF11225201F368985098184160799890
:103A800021462A46234619F080FF01229202F3685C
:103A9000985098184160F068F1497B9A4252F0685A
:103AA000F0497D9A425201206D9E307388980EF045
:103AB00057FF939B18462038919DE860002131758F
:103AC000949C21696960959A0B3A51425141AA78B8
:103AD0000A436A708121C900A26851182A46A96068
:103AE0002C1D959414366D968E9D50611161506811
:103AF000016814464268A161E2612521C9004118AC
:103B0000E9610830A860EB6000208C9B5872D648B1
:103B1000D6498A9A511819605860D548141889985E
:103B20000268D44E6E443046214602F059FE367883
:103B30000C2E05D103206D990870052001F024F8A2
:103B4000CC496944C878CC4A6A44907048788B78EC
:103B50001B0218181080C948684400688890C84D36
:103B60006D442D680C31C7486844F8221AF068F893
:103B700020460FF004F80B2E0BD1BE4868440560B8
:103B80008898BF4969440860BA48684409F0FEFE55
:103B90002DE02846889D002E29D1B64C6C44014664
:103BA000E070B548684400682080E571080EA07197
:103BB000080C6071080A2071AF4868448078A070D2
:103BC000280EA072280C6072280A207220460B3042
:103BD000AC496944F52219F0D3FE91990869496905
:103BE000A94A0092939B203B224612F0A1FD01209E
:103BF0006D99087095980EF0ECFF002035990871CA
:103C0000949DA8682A699592919CA260E0600B3E01
:103C100072427241637813432371091D7F912146DB
:103C2000083188919599002311225201821821614F
:103C3000214614310DC100F0D1FD3199C860022137
:103C4000119A917250729099C86809698C9CA06110
:103C5000E161E868296903C2083A1192899802680B
:103C6000183484486844214602F0BEFC814D6D44FE
:103C70002D68022D01D10420DEE5804868440068EB
:103C800088907F4E6E44366820460EF054FE012D1B
:103C900007D101208C9988617D96CE61889E0E6245
:103CA000EAE500208C9DA861EE6131462D9E889A40
:103CB0003260C9078E9C26D0149908741546909AD4
:103CC000D1681269E36824697560B360F46031619A
:103CD0007261511A00D20146889D002D00D10D0B52
:103CE000681EB06169488A990C1889980268614811
:103CF0006844214602F0ACFB5E48684400680C282A
:103D000023D1052098E50621909BD96101212975D1
:103D100014990870E0682169A861E9610C330FCB40
:103D20000CC6306071602C46119A1546899802685D
:103D3000183450486844214602F052FF4D48684408
:103D400000680C2812D1062076E54D4D6D442D6893
:103D5000484E6E44366820460EF0DEFD0B2E00D035
:103D6000E6E028068E9D58D0002058E0444868447C
:103D7000006888903F4E6E44366820460EF010FE74
:103D80007D960B2E35D100203199C86001212A463D
:103D9000A97268729099C86809698C9CA061E161F8
:103DA0008E99C868096903C5083D1192899802680F
:103DB000183430486844214602F016FC2D4D6D44FD
:103DC0002D68022D01D1072036E52C486844006893
:103DD00088902B4E6E44366820460EF0ACFD012DC7
:103DE0000BD101208C9908607D964E60889E8E6074
:103DF00042E58C99959B889E3FE500208C9941C1B6
:103E0000889A0A60F1078E9D0BD09099C86809695D
:103E100004F0E0FC06468C9994E02D984068909C54
:103E200062E53199C8600221119EB1727072909959
:103E3000C86809698C9CA061E161E868296903C6CA
:103E40008998026818340B486844214602F0CCFB7C
:103E5000084D6D442D68022D1AD10820ECE4C046AF
:103E60001C0500001E050000A0000210B91C000087
:103E700048190000480500004C07000050050000EC
:103E80004C05000054060000CC000210B8190000D8
:103E9000EC48684400688890EB4E6E4436682046D3
:103EA0000EF049FD012D00D1F3E600208C998861C8
:103EB000CE612D9D88992960F1078E9C3DD0149983
:103EC0000874909AD1681269E3682469889E6E60CC
:103ED000AB60EC6029616A61511A00D20146889892
:103EE000002800D1080B401E2D998861D7488A9977
:103EF0000C1889980268D6486844214602F0A8FA4E
:103F0000D348684400680C2801D1139894E4CE4D3E
:103F10006D442D68CE4E6E44366820460EF0FCFC93
:103F20000B2E05D128068E9D8C9909D0002609E01C
:103F30007D968C99959B2E469FE406207D909AE471
:103F40002D984668959BD8E46D9A526895923A9A56
:103F500052697B92BE4D6D442C464CC94CC47D9C2D
:103F60007B99A171607195982071772080018A9961
:103F70000E1830460ECD0EC08B98006979900168FE
:103F8000959141687B91304609F0F0FC6D9D686128
:103F9000AF4868447290C01C1022314619F0F0FC02
:103FA00001202E462876FA488A9908181322729919
:103FB00019F0E6FC9598A0607B98E060799D284612
:103FC00008302C9988609398C8600020219C607408
:103FD00031468A9E084618301431F74AB218252314
:103FE000DB00EB1823606260A160E060F3483418E6
:103FF0008998026896486844214602F023FD944857
:10400000684400680C288B9E0AD0914D6D442D6841
:1040100020460EF0C9FD0B2D8A9904D0FFF737F822
:104020000520FFF793F9E64808180C46FCF714FC46
:10403000002989D121467F9C3A9DE2480818FCF767
:10404000FBFB002901D1FFF783F900220B46A833BF
:104050006D9C251D0BC522618A99E4E70446012069
:104060008003E2B210183269959213687B9352680C
:1040700079926D9D68603A9840697290744E6E4472
:10408000F01C182219F07CFC02202872CE488A9974
:1040900008181B22314619F073FC3598729941714A
:1040A00004713E987B9981607999C1609598083038
:1040B0007D9988609398C86000202C9C6074284685
:1040C0000830291D8A9EBC4AB2182523DB00959D25
:1040D000EB1823606260A160E060BC4834188998E6
:1040E00002685B486844214602F0ACFC58486844CA
:1040F00000680C288B9E13D0554D6D442D682046CA
:104100000EF052FD0B2D8A9901D0FEF7C0FFAD488D
:104110000818FCF7B1FB0029A0D13A9DFFF728FA57
:104120000620FFF713F9AA488A990818FCF764FBE0
:10413000002906D0002230617161B161F2618A9D6F
:10414000A4E00120307020460EF07CFCFFF726FA38
:104150003E9A1268889232697B923D4D6D442C469E
:104160004CC94CC42E997B9A8A77487788980877EF
:104170007B2080018A990C1820460ECD0EC08B98AA
:10418000C6683068889070687B90204609F0EEFB26
:104190003E9D28612E4868446690C01C102221462E
:1041A00019F0EEFB012028758A488A9C20181322FA
:1041B000669919F0E5FB3298889901607B99416016
:1041C000854820182521C90071182B9A9161D0616A
:1041D00008361660939850600020209A5072284646
:1041E000143010351560506089980268184868448A
:1041F000329C214602F026FC1548684400680C28D1
:104200008F9E19D02046104C6C442468104D6D448C
:104210002D680EF0C9FC0B2D00D084E08A998B9D8F
:104220003F9E6E4808180C46FCF716FB00298FD1FC
:1042300021467F9CFFF7C7F806203F9E307005207F
:10424000FFF7A2F8500500004C050000B819000067
:104250004805000089980268614868442E9C214600
:1042600002F0F0FB5E48684400680C288F9E66D020
:1042700020465C4C6C442468594D6D442D680EF00A
:1042800093FC0B2D4FD18A9D3F9E959C5648281834
:10429000FCF7F2FA002900D145E79594326988923B
:1042A000524B6B4463931822629204467B901846EB
:1042B00019F066FB01208003E1B208188B99CE68E3
:1042C00031686691716864913E9C206044486844FE
:1042D0006190C01C6399629A19F052FB0220207110
:1042E000434828181B22619919F04AFB7D98889948
:1042F00041707B9901702E986699016064994160C4
:10430000354828182521C9007118329A9161D06169
:10431000083616609398506000202B994872201D33
:104320000C60486096E72E48684405602D48684454
:1043300004602B48684409F029FBFEF7D1FE0720F2
:104340007BE728689190686890900024462C07D0FD
:104350002848684400190E2119F07CFB0E34F5E75B
:10436000A8688E90E8688C90FFA8E4301E2119F0B0
:1043700068FA01218F98959101702B218B98415CEF
:10438000C91E052943D88A0002A189588F46C04614
:10439000BD1C00000144001009440010B14300108E
:1043A000AD430010F9430010AD430010303024E05D
:1043B0002C300EF00EFC2AE0891C0000D01D0000FD
:1043C000AC1C00009C1C0000AD1C0000B01D0000D7
:1043D0008C1D0000BD1D0000891D0000AC1D0000EB
:1043E000480500004C0500009C1D0000400900002D
:1043F000AD1D0000000500002C300EF0A6FB06E00D
:1044000030300EF0ADFB02E02C300EF0A9FAD948A6
:104410008A9D29182520C200D7486844949219F033
:104420000FFCD64829188A78D54B6B449A70285CC3
:104430004978090208181880879C26789EA8D149D7
:104440006944462219F0FCFB96A8FFA9E4311E221C
:1044500019F096FA959820758F96022E01D1FEF7E5
:1044600072FFFFA8103087909EA946227F9219F014
:10447000E7FBFBA87D9096A91E227B9219F080FA9B
:10448000B1A88890BC496944949A19F0D9FBBC48FA
:1044900068448078B0A98B9188703498406908800E
:1044A00000267C9CA6609098E060919820618E9890
:1044B00060618C98A06155208001281887997F9AA7
:1044C00019F0BEFBB04828187D997B9A19F058FA6C
:1044D000169886700680AD48281891908899949A0D
:1044E00019F0AEFB17988F990170A948281803227C
:1044F0008B99909219F044FA08347C94502E07D08E
:104500009D48684400218151801941601036F5E7CB
:10451000A04C6C440E26002E08D0974969445022C6
:10452000204619F05CFA761E5034F4E711F072FB65
:104530008F908E9100209849891D802804D08E4A42
:104540006A4411521030F8E70020182805D093492A
:10455000694402220A54001DF7E7914800248A9E0C
:1045600034507C99189D6961AC6115990C603018C4
:10457000446084608B48301823214A01854969448E
:10458000949019F02CFA8F9828608E9868601A9D84
:1045900090982871A8702C80199895990170EC72E8
:1045A0002C818148301874496944802219F048FBF5
:1045B000AC817E48301879496944182219F0E0F935
:1045C000EC807B483018092119F044FA9598A872BC
:1045D0008C2C07D06F48684400190A2119F03AFA68
:1045E0000A34F5E7FFA858306A4969448C2219F06B
:1045F00027FB002485980480462C07D06548684432
:104600000019052119F026FA641DF5E769488A9E0C
:104610003018859D294608319591052219F0B0F989
:10462000654831186120800130180E22909219F0EF
:10463000A7F90024AC6061483018FFA958318C22DA
:1046400019F0FEFA5E48301852496944462219F0C2
:1046500097F91B98046044605A4831184D4D6D44D9
:1046600028461430822219F0EBFA574868448F909C
:1046700096222946154619F0E3FA779804604460BB
:1046800033987C99C1612A98919901604F483018FC
:104690004F4971183C2219F073F94E4830188F9920
:1046A0002A4619F0CDFA062081990C509598909AD7
:1046B0008850881D889044600C7086980470929B86
:1046C0001C615C619498986176980470FEF7DEF93D
:1046D0001CC90C39C9688E9D1CC529606860002002
:1046E0002D9908710C3D899802682C486844294628
:1046F00001F0AEFE294C6C4424680C2C34D02749C0
:10470000694428460D790EF007F90B2C13D1022DC0
:10471000909811D0034600698168426912035118CC
:104720002D4A8A18091D8161C261996958691A69FF
:104730008E9DFEF75AFE9098949D01694A69044641
:104740008868C96804F046F82169486121690A69E6
:1047500048699042BCD101207B99087079980EF08D
:1047600043FA0024FFF7E9F804207B99087004203D
:10477000FFF765F8C8170000580A0000F11800009C
:104780004C0A00000005000086150000A815000076
:10479000D1160000601D00006F08000048050000F1
:1047A000B0140000180D000078110000081200007D
:1047B000E21400004E180000AD170000AC17000016
:1047C00053180000D816000040090000B82F000060
:1047D000F0140000F42F0000FC0F000090427BD08A
:1047E000909B18604430919A5061D069411CD1610E
:1047F00003210903C0B240185860106906C8DA6086
:1048000099600838014608318E9A91619399D16177
:1048100000218C9D6976191DE64A8A9CA2182523E1
:10482000DB00C018E8602A6169612146E2480C1883
:1048300089980268E14E6E443046214601F0D0FF6F
:1048400036780C2E6DD0DE48684400689590DD4DBA
:104850006D442D68D94969440C31DB486844F8221D
:1048600019F0EEF920460EF08AF9032E10D02846F2
:10487000959D0B2E2BD1D14969440860D1486844DD
:104880000560CE48684409F081F80124949D24E035
:104890003998056095994160CC4C6C4420460830AD
:1048A000C9496944382219F06BF8C94810F046FF2D
:1048B000204614F047F811F031F89098066840252A
:1048C000304621462A4619F05BF800207053919932
:1048D00048698A69949D81E700240120359E3071E2
:1048E00088980EF032F900203070919B1879296970
:1048F0002043187029204001AA6810181A465960F0
:104900009860181D889051689068D16002C8106145
:104910000022919B9A612C224A438118919A5161FD
:1049200004E003207F99087006202DE1884266D0BC
:10493000D0612C3010619069411C916105210903FF
:10494000C0B24018909C2060D06806C8A260616028
:104950000838014608318E9A51619399916100217E
:104960008C9D69759B498A9B59182522D200801815
:10497000A860E96019462C6197480C18899802686C
:104980008E4E6E443046214601F02AFF36780C2EBA
:104990005CD08B486844006895908A4D6D442D68C2
:1049A000864969440C318D486844F82219F048F969
:1049B00020460EF0E4F8042E11D02846959D0B2ECB
:1049C000919A18D17D49694408607E486844056021
:1049D0007A48684408F0DAFF0124949D10E0919C25
:1049E000E06905609599416008307C49694424225A
:1049F00018F0C6FF224610695169949D96E700247D
:104A00000120359E307088980EF09FF8002030719C
:104A10002969919B1878204318718D208000AA681D
:104A200010181A469960D860331D889313460833CE
:104A30007F93116102C80022919BDA61919A5061C3
:104A400038224A438118919A916104E003203599F4
:104A50000870072098E0884266D0909B1860383034
:104A60005061D069411CD16107210903C0B24018CF
:104A70005860106906C8DA60996008380146083144
:104A80008E9A91619399D16100218C9D6976191D4F
:104A9000484A8A9CA2182523DB00C018E8602A61D6
:104AA0006961214644480C1889980268434E6E4457
:104AB0003046214601F094FE36780C2E60D04048F6
:104AC0006844006895903F4D6D442D683B496944AA
:104AD0000C313E486844F82219F0B2F820460EF036
:104AE0004EF8052E10D02846959D0B2E17D1334930
:104AF000694408603348684405603048684408F0F9
:104B000045FF0124949D10E09098006805609599F8
:104B1000416008302D496944302218F031FF919AE4
:104B200050699169949D96E7002401208899087046
:104B30007F980EF00AF8002C05D191980079C007F3
:104B400001D1FFF7FEFBD64810F003FE286906C826
:104B50002523DB000838C018919B1B1D07C30020CC
:104B600090990870CF488A9909181448684403F04E
:104B7000FBFD1248684400680C280BD1092003E0B3
:104B800003208899087008207A9A8F990870042069
:104B9000FEF7D8FB12F04CFA1E21605090214158CC
:104BA00019609030406858608798016006220E2195
:104BB000A15088E0C91C00005819000048050000F9
:104BC000500500004C05000050070000400900009F
:104BD00031000000C51C0000541900004808000006
:104BE000B14808188999096811F032FA0028929B97
:104BF00000D0E2E0186899680022814200D15A682A
:104C000086981E308E905000031D042A4BD8949332
:104C10008E9805689592A818A621445CA34814387C
:104C200006689298806893900E2800D350E110F0A7
:104C3000F1FF7D22D20000238F9319F04FF82968ED
:104C4000421A1104949B2AD091928B901F210C4000
:104C500001228C92A2403240511E8A410A26939929
:104C60004E43AC199094E35A05244C432919959866
:104C700009188D98095C8A4209D0142B919854D256
:104C800081B258188A49884206D3894804E091982D
:104C900081B2581A00D28F98949B909AD052959ACC
:104CA000521C9B1CB1E7929880680D280AD88E99F7
:104CB000096808189821405C1F21014001208840A4
:104CC0007A490860879887900DF0DCFF012821D190
:104CD000929881600D290CD81E20869A1058401891
:104CE0009821405C1F210140012088406F49091F25
:104CF0000860704868440122002311F06BF9809A23
:104D000007CA0A23869CE05020460A304160A274FC
:104D10008A9965E71E20869C2158902200238B509B
:104D200090314B602058929B38E7949881198B986A
:104D300028600020949068528E9D296809199598E2
:104D400009188D9E8A5D8C9B5A408A552968929AD3
:104D5000936891939023919ACA5090314860296842
:104D600009190918895D8C9B929A13730204939B0D
:104D70001B0613431A0E819CA275607594982075CA
:104D8000E174A07458184C49879A03C24B488A9919
:104D90000818899909680FF03FFE929B002810D1EE
:104DA0007F9800681A21869C605000211973A11C0D
:104DB000879119460C317D91EEE603207D990870AC
:104DC00000E00420869908701869596901434A4235
:104DD0004A41002901D000F07FFC8C92769800783F
:104DE000374D384E4000C0467844808840008744A4
:104DF0000600C30AC30ADE03090026005C049C699E
:104E0000DC61A3E330488A990818959078980146A8
:104E100010319491007C839A4000C0467844808889
:104E20004000874408005A00A90AB900DD004B0180
:104E3000050129011000789AD468959856E0769A71
:104E4000506800F023FC104608308E90107A8000E5
:104E500001A108588A998746714E0010E14E001052
:104E600079630010395200105F5100107B4E001022
:104E700078998869C969839A40E1144808188D9027
:104E80006E980078739C4000784480884000874486
:104E900004002A00730AF902BE02A06947E2C04674
:104EA000B600000034190000B8300000180000D02F
:104EB000FFFF0000601D0000A03E0020B030000099
:104EC0006F0800008DF70000F8300000703100001E
:104ED0000E21F64A939810F07FFAF54810F07CFB0B
:104EE000F44810F079FBF44810F076FB9460F34935
:104EF0008A9C61182822959018F042FDF04810F025
:104F00001DFCF048201812F001FE389C201D12F004
:104F10003BFE10F003FDA1887018001D6A1E92B2BE
:104F20009142769900D8042080B2032864D00128E9
:104F300062D0002800D0AEE00C4610F06BFE9190DD
:104F4000939125696669E04810F0F8FBDF4810F09E
:104F5000C5FB00249198291A939886412046604108
:104F600001224240002A204600D10846214600D1B5
:104F700031467D22D200234618F0B0FE10F0C8FB67
:104F800010F0CCFCD248839988600C70769908693F
:104F90004969789A9061D16189980168789C183440
:104FA00020460FF067FCC1B2022977D0032900D157
:104FB00087E2789D2876010CA976010A6976000EB1
:104FC000E876C44810F0BAFB204612F09FFD10F0BE
:104FD000A5FC0020839A1077A868A9691160506029
:104FE00089980168104609F059FA83990028949D20
:104FF000959E4CD0042057E2888B801980B2B64A27
:10500000904248D20C461C34B4480D4610F096FB32
:10501000204614F0CFFF10F081FCAD4883998860E2
:105020000020087028696969AD4D789A9061D16156
:1050300089980168789C183420460FF01BFCC1B297
:1050400002294CD0032900D13DE2789D2876010C3D
:10505000A976010A6976000EE876A24810F06EFB88
:10506000204612F053FD10F059FC0020839A10776F
:10507000A868A9691160506089980168104609F014
:105080000DFA83990028949D959E00D00BE2084666
:105090000DF07DFBD4E1949D959ED1E1924810F0F6
:1050A00058FB0020839A107290488A990818106063
:1050B000789A9068769989699161D0618C488A99CB
:1050C0000C1889980168204609F07CFD0028949D01
:1050D000959E00D0E5E120460DF076FBB0E18548D5
:1050E00010F037FB0020839A1072789988688861E5
:1050F000959BCB61114608318E91194603C28A8A6D
:10510000921992B2744B9A4200D30FE20B8CF218B0
:10511000121D2E466C1EA4B2A34200D8042292B2E5
:10512000012A3AD0032A00D007E2734A80584C8CF7
:1051300072490DF095FD0D468068839E71681431AB
:1051400022460DF05BF92968491E296006CE1269D6
:105150000023739C2372B060F26031618A996848C1
:105160000818899909680BF0EFFE00288399654EAD
:1051700000D09EE1A120C0000968839A52680918F6
:10518000507C937C1B021818D27C120482185E4853
:10519000684412F0CDFF839C6BE0488C839DA8810E
:1051A0004000401CE881594810F0C8FAE88912F024
:1051B0001FFD10F0B3FB28684F49405854490DF0CB
:1051C0004FFD0C468068EA89696814310DF05AF980
:1051D0002168491E216081B2B14216D1A120C000D0
:1051E00006CD0818517C937C1B025918D27C1204FE
:1051F0008918083D12F018FC002804D0E989418480
:105200003749891C01842C4632E02861414810F05E
:1052100095FAE88912F0ECFC2846103014F00EFFE5
:1052200010F07CFB03CD0969AA682A61696100213D
:10523000739A117310608A99374808188999096818
:105240000CF0A2FB0028839C00D030E1A120C0001C
:1052500006CC0818517C937C1B025918D27C12048E
:105260008918083C12F0E0FB002801D02169016296
:10527000244E8498010120684218A121C900435896
:1052800028215943144D002948D01346928A921977
:1052900094B228391A462832AC42F4D2104C641C1D
:1052A0001B8CA342EFD1949D959EC6E0FCEE0110AD
:1052B00008070210B8080210C808021020310000C8
:1052C0002C00000008310000430000000300000033
:1052D000A03E002041000000FCFF00006E00000026
:1052E0006F08000012000000420000000C310000B6
:1052F0005831000013000000A4070000A8080210A5
:10530000703100008DF70000601D000050000000AB
:10531000980802104A0000007831000000216E9ABF
:105320001170739CA061EF498A9A51188D91E061C8
:10533000A121C9004158022900D3E3E0849801016A
:10534000E06990914518A121C9004218939291916A
:10535000415828238F934B430022002B66D03446BC
:10536000AE8AA619361DB6B2042E04D3283B521CB1
:105370002835DD4EF1E7DD4C6C442046939913F05F
:1053800045FADB48001D218C81424BD0D749694446
:1053900028228D9C204618F0F3FAD64810F0CEF95A
:1053A000204612F08FFB10F0B9FA739DE869D249DC
:1053B0004058D2490DF044FC03460C462A68D04DB3
:1053C0006D442846194608F017FA2068401C2060F2
:1053D0002988C54E7018001DC54A521E92B29142CE
:1053E00000D8042080B202283DD00328739CA5D1A8
:1053F00000201C990870E0696E9A10612068D060E6
:10540000BF486844418880880004401890608A99A9
:10541000BC480818899909680BF096FD00288DD0C2
:1054200004203AE07398C06991994158949D959EE3
:1054300002294FD201206E99087001208E990870C0
:10544000012028705820305C072804D0052805D09A
:10545000042800D036E16836304631E16036304607
:105460000DF0B2F92EE100206E9A1077739CE0697E
:1054700010612068D060A248684441888088000498
:10548000401890608A999F480818899909680CF01B
:105490007BFA002800D151E703206E99087005209F
:1054A00008E0052000E00720929B8C9A0FE0032083
:1054B00000E00420929B8C9A949D8E99087008209D
:1054C00005E0032000E00620929B8C9A949D2870B2
:1054D0000420FFE0909A82189492152929D2A722DD
:1054E000D20082188F98484328380028A2D004465A
:1054F0009498114695920DF063FD959A20462838B0
:105500002832F2E7849A12018618152918D2A722A8
:10551000D200841828254D43283D002D13D0304655
:1055200021460DF01BFD283D2834F6E7764800F0B3
:1055300070FD94980EF036F87CE7744800F069FD31
:1055400030460DF0EBFF739C674EF7E6F520C00088
:105550002258002A37D025187B2000012118E8792D
:105560009590A8799490287993906E79281D541E6F
:10557000A20018F02FFA2C603002939940189499E9
:105580000904959A120651180818769C60606048C4
:1055900010F0D4F8201D12F0B9FA10F0BFF9002075
:1055A000389908709298C0696168A160E0605948B4
:1055B0008A990C1889980168204608F06FFF002826
:1055C0007DD0032084E0A120C0002018016828209D
:1055D0004843849909016518769A002854D02E8C86
:1055E0004349491E89B28E4201D8042102E03E4956
:1055F0008919091D89B2012904D000290CD0032979
:1056000007D109E0A98A384BC91889B2424B99429F
:1056100002D328352838E0E734486844959028308C
:105620002022294618F0ACF9E88C3C496944949151
:105630008880688CA98C0904081838496944086076
:1056400037486844939048229192959918F0C7F989
:1056500030488A9D281895909399919A18F0BFF92F
:105660007898068006462F4828180622949918F044
:1056700087F99598002132463174F4603146103133
:1056800094911B4D184E31E4274850608999096860
:105690001446FAF779FE929BC1B20229389A14D0C7
:1056A00000211170D969A060E1601A488A990C182C
:1056B00089980168204608F0F1FE002807D12046AD
:1056C0000DF065F89298C46940E7052001E00620D6
:1056D000929B8C9A769908707C98104326D000266D
:1056E000889B3EE0703100008DF70000601D0000D7
:1056F0006F0800003B000000A4070000D80802105B
:1057000048050000A8310000CF000000D2000000D2
:105710003D000000F8300000FCFF00000005000024
:10572000580A000042310000A03E0020889D03CDB1
:1057300001267040083D084301D000F062FC0221C0
:105740000020296068601A691C465B6972401A4330
:1057500001D000F056FC216160610321296068607E
:105760002B46779903C90143481E0A468241002906
:1057700001D000F080FD779D0835819800780121E7
:10578000869100288893879684920FD0749A104649
:105790001C30117F002900D0FBE3517FC90700D1E5
:1057A000F4E301480FF018FFC40102107A956F4826
:1057B0008A9C21183398C06979906D4868448B9011
:1057C000EC30822218F03CFA6A4823186A48211803
:1057D0002A98006876903C227893184618F0D0F802
:1057E0002598016892914168919181689091C16872
:1057F0008E9101698D9141698C91806983905F4898
:105800006844959080259495294618F01AF85C4CC8
:105810006C442046294618F014F85A482146FBF7F4
:10582000E9FC00259E959F95A095A195349E356233
:105830007562B562F562544C204648308F905049ED
:105840006944FBF703FD204659307F909EA9FBF782
:10585000FDFC4E489599FBF7CDFC4D48684405602A
:1058600094984C496944086046484B49694408602B
:105870004A48684405600420939049496944086097
:10588000012448486844046010207D908F9931635A
:105890007063B563F563B5623562FFAAE432E12057
:1058A0009071A02050711571D4709570557015705D
:1058B0003C4868447C9002217B91072310F084FCD3
:1058C0009594F463939C34642D4E6E440F21364AB4
:1058D00003238F93304610F077FC344A30467B998F
:1058E000234610F0FFFC1C228B9C20467C9918F06C
:1058F00047F81C3424222046314618F041F8279AF4
:105900008398D061269B1D73294898602948D880C8
:105910008F98C001014690319980423058807D9C1B
:105920001C80289805604561184818619498586152
:10593000299893990170809892990166919941668E
:10594000909981668E99C1668D9901678C9941679E
:1059500015707F990246503232C2856405640A4848
:10596000801DFBF7EDFFC00726D03BE308300000A9
:10597000601D0000582F0000B82F000048050000EF
:10598000580A00002D380020C83F0020AE38002003
:1059900018050000140500001005000008050000AF
:1059A0000405000000050000F8110210A400021018
:1059B00001400101EF020000D0488A990E18949628
:1059C000CF48C11DCF4C6C44CF4A2046FBF7F4FBB7
:1059D0001720020130462146919218F031F9809843
:1059E0000562CA4C2834C74969442046FBF748FC85
:1059F000C3480930FBF718FCC54B6B449599997463
:105A00004021929119824321C24A349E32607160D2
:105A1000B060C148F06086980090BA4E6E4430463F
:105A200094992246FBF7F4F9F07C8E90B37C708950
:105A30008D90B0898C90F0898B90308A8390B74894
:105A4000684406CE06C0318801809093042B00D1B3
:105A5000C5E2809C60697F90B0486844B049694461
:105A60000CC80CC1008808802562A84E5036A54994
:105A700069443046FBF704FCA1480A30FBF7D4FB2D
:105A800096AB9599997492991982A3499991989096
:105A90006F209790A348969000959A4C6C442046AE
:105AA00094993246FBF7B4F9A07C9C4969440CCC2C
:105AB0000CC122880A800428959E00D0A8E297484D
:105AC0006844904969440A4618C818C20088108082
:105AD00095488A9A101875900CC90CC009880180E5
